{
  "address": "0x26130350f926B8ACE640Bf68B9A4E8Fa639395e7",
  "abi": [
    {
      "anonymous": false,
      "inputs": [
        {
          "indexed": false,
          "internalType": "address",
          "name": "previousAdmin",
          "type": "address"
        },
        {
          "indexed": false,
          "internalType": "address",
          "name": "newAdmin",
          "type": "address"
        }
      ],
      "name": "AdminChanged",
      "type": "event"
    },
    {
      "anonymous": false,
      "inputs": [
        {
          "indexed": true,
          "internalType": "address",
          "name": "beacon",
          "type": "address"
        }
      ],
      "name": "BeaconUpgraded",
      "type": "event"
    },
    {
      "anonymous": false,
      "inputs": [
        {
          "indexed": false,
          "internalType": "uint8",
          "name": "version",
          "type": "uint8"
        }
      ],
      "name": "Initialized",
      "type": "event"
    },
    {
      "anonymous": false,
      "inputs": [
        {
          "indexed": true,
          "internalType": "address",
          "name": "_by",
          "type": "address"
        },
        {
          "indexed": true,
          "internalType": "address",
          "name": "_to",
          "type": "address"
        },
        {
          "indexed": false,
          "internalType": "uint256",
          "name": "_requested",
          "type": "uint256"
        },
        {
          "indexed": false,
          "internalType": "uint256",
          "name": "_assigned",
          "type": "uint256"
        }
      ],
      "name": "RoleUpdated",
      "type": "event"
    },
    {
      "anonymous": false,
      "inputs": [
        {
          "indexed": true,
          "internalType": "address",
          "name": "nftContract",
          "type": "address"
        },
        {
          "indexed": true,
          "internalType": "uint256",
          "name": "tokenId",
          "type": "uint256"
        },
        {
          "indexed": false,
          "internalType": "uint8",
          "name": "tier",
          "type": "uint8"
        }
      ],
      "name": "TierIncreased",
      "type": "event"
    },
    {
      "anonymous": false,
      "inputs": [
        {
          "indexed": true,
          "internalType": "address",
          "name": "implementation",
          "type": "address"
        }
      ],
      "name": "Upgraded",
      "type": "event"
    },
    {
      "inputs": [],
      "name": "MAXIMUM_TIER",
      "outputs": [
        {
          "internalType": "uint8",
          "name": "",
          "type": "uint8"
        }
      ],
      "stateMutability": "view",
      "type": "function"
    },
    {
      "inputs": [],
      "name": "ROLE_ACCESS_MANAGER",
      "outputs": [
        {
          "internalType": "uint256",
          "name": "",
          "type": "uint256"
        }
      ],
      "stateMutability": "view",
      "type": "function"
    },
    {
      "inputs": [],
      "name": "ROLE_TIER_MANAGER",
      "outputs": [
        {
          "internalType": "uint32",
          "name": "",
          "type": "uint32"
        }
      ],
      "stateMutability": "view",
      "type": "function"
    },
    {
      "inputs": [],
      "name": "ROLE_UPGRADE_MANAGER",
      "outputs": [
        {
          "internalType": "uint256",
          "name": "",
          "type": "uint256"
        }
      ],
      "stateMutability": "view",
      "type": "function"
    },
    {
      "inputs": [
        {
          "internalType": "uint256",
          "name": "tokenId",
          "type": "uint256"
        }
      ],
      "name": "defaultVotingPower",
      "outputs": [
        {
          "internalType": "uint16",
          "name": "",
          "type": "uint16"
        }
      ],
      "stateMutability": "view",
      "type": "function"
    },
    {
      "inputs": [
        {
          "internalType": "address",
          "name": "operator",
          "type": "address"
        },
        {
          "internalType": "uint256",
          "name": "target",
          "type": "uint256"
        },
        {
          "internalType": "uint256",
          "name": "desired",
          "type": "uint256"
        }
      ],
      "name": "evaluateBy",
      "outputs": [
        {
          "internalType": "uint256",
          "name": "",
          "type": "uint256"
        }
      ],
      "stateMutability": "view",
      "type": "function"
    },
    {
      "inputs": [],
      "name": "features",
      "outputs": [
        {
          "internalType": "uint256",
          "name": "",
          "type": "uint256"
        }
      ],
      "stateMutability": "view",
      "type": "function"
    },
    {
      "inputs": [],
      "name": "getImplementation",
      "outputs": [
        {
          "internalType": "address",
          "name": "",
          "type": "address"
        }
      ],
      "stateMutability": "view",
      "type": "function"
    },
    {
      "inputs": [],
      "name": "getInitializedVersion",
      "outputs": [
        {
          "internalType": "uint8",
          "name": "",
          "type": "uint8"
        }
      ],
      "stateMutability": "view",
      "type": "function"
    },
    {
      "inputs": [
        {
          "internalType": "address",
          "name": "operator",
          "type": "address"
        }
      ],
      "name": "getRole",
      "outputs": [
        {
          "internalType": "uint256",
          "name": "",
          "type": "uint256"
        }
      ],
      "stateMutability": "view",
      "type": "function"
    },
    {
      "inputs": [
        {
          "internalType": "uint256",
          "name": "tokenId",
          "type": "uint256"
        }
      ],
      "name": "getTier",
      "outputs": [
        {
          "internalType": "uint8",
          "name": "",
          "type": "uint8"
        }
      ],
      "stateMutability": "view",
      "type": "function"
    },
    {
      "inputs": [
        {
          "internalType": "uint256",
          "name": "tokenId",
          "type": "uint256"
        }
      ],
      "name": "increaseTier",
      "outputs": [],
      "stateMutability": "nonpayable",
      "type": "function"
    },
    {
      "inputs": [
        {
          "internalType": "uint256",
          "name": "required",
          "type": "uint256"
        }
      ],
      "name": "isFeatureEnabled",
      "outputs": [
        {
          "internalType": "bool",
          "name": "",
          "type": "bool"
        }
      ],
      "stateMutability": "view",
      "type": "function"
    },
    {
      "inputs": [
        {
          "internalType": "address",
          "name": "operator",
          "type": "address"
        },
        {
          "internalType": "uint256",
          "name": "required",
          "type": "uint256"
        }
      ],
      "name": "isOperatorInRole",
      "outputs": [
        {
          "internalType": "bool",
          "name": "",
          "type": "bool"
        }
      ],
      "stateMutability": "view",
      "type": "function"
    },
    {
      "inputs": [
        {
          "internalType": "uint256",
          "name": "required",
          "type": "uint256"
        }
      ],
      "name": "isSenderInRole",
      "outputs": [
        {
          "internalType": "bool",
          "name": "",
          "type": "bool"
        }
      ],
      "stateMutability": "view",
      "type": "function"
    },
    {
      "inputs": [
        {
          "internalType": "address",
          "name": "_nftContract",
          "type": "address"
        }
      ],
      "name": "postConstruct",
      "outputs": [],
      "stateMutability": "nonpayable",
      "type": "function"
    },
    {
      "inputs": [],
      "name": "proxiableUUID",
      "outputs": [
        {
          "internalType": "bytes32",
          "name": "",
          "type": "bytes32"
        }
      ],
      "stateMutability": "view",
      "type": "function"
    },
    {
      "inputs": [
        {
          "internalType": "uint256",
          "name": "_mask",
          "type": "uint256"
        }
      ],
      "name": "updateFeatures",
      "outputs": [],
      "stateMutability": "nonpayable",
      "type": "function"
    },
    {
      "inputs": [
        {
          "internalType": "address",
          "name": "operator",
          "type": "address"
        },
        {
          "internalType": "uint256",
          "name": "role",
          "type": "uint256"
        }
      ],
      "name": "updateRole",
      "outputs": [],
      "stateMutability": "nonpayable",
      "type": "function"
    },
    {
      "inputs": [
        {
          "internalType": "address",
          "name": "newImplementation",
          "type": "address"
        }
      ],
      "name": "upgradeTo",
      "outputs": [],
      "stateMutability": "nonpayable",
      "type": "function"
    },
    {
      "inputs": [
        {
          "internalType": "address",
          "name": "newImplementation",
          "type": "address"
        },
        {
          "internalType": "bytes",
          "name": "data",
          "type": "bytes"
        }
      ],
      "name": "upgradeToAndCall",
      "outputs": [],
      "stateMutability": "payable",
      "type": "function"
    }
  ],
  "transactionHash": "0xefe9a3ba86a1be64dae444e1b25b39157f21155e8bcb1532ae06933220a3e7bc",
  "args": [],
  "numDeployments": 1,
  "solcInputHash": "9205d83e471e532d5c8899b0d2d8e361",
  "bytecode": "0x60a06040523060601b60805234801561001757600080fd5b50600054610100900460ff16158080156100385750600054600160ff909116105b8061006357506100513061013960201b610b2a1760201c565b158015610063575060005460ff166001145b6100ca5760405162461bcd60e51b815260206004820152602e60248201527f496e697469616c697a61626c653a20636f6e747261637420697320616c72656160448201526d191e481a5b9a5d1a585b1a5e995960921b606482015260840160405180910390fd5b6000805460ff1916600117905580156100ed576000805461ff0019166101001790555b8015610133576000805461ff0019169055604051600181527f7f26b83ff96e1f2b6a682f133852f6798a09c465da95921460cefb38474024989060200160405180910390a15b50610148565b6001600160a01b03163b151590565b60805160601c6115776200018360003960008181610593015281816105d3015281816107070152818161074701526107bf01526115776000f3fe60806040526004361061012a5760003560e01c8063725f3626116100ab578063ae682e2e1161006f578063ae682e2e1461035b578063b3c6501514610373578063c688d6931461038b578063d5bb7f67146103ab578063f822d5aa146103cb578063fcc2c078146103eb57600080fd5b8063725f3626146102a657806378d250b3146102d6578063aaf10f42146102f6578063ae5b102e14610323578063ae60bda41461034357600080fd5b80634f062c5a116100f25780634f062c5a1461020b5780634f1ef2861461023d5780634f6e314a1461025057806352d1902d1461027c57806364d47d081461029157600080fd5b806314fdd44b1461012f5780632b5214161461016757806331576ad5146101935780633659cfe6146101b557806344276733146101d5575b600080fd5b34801561013b57600080fd5b5061014f61014a3660046111ac565b61040b565b60405161ffff90911681526020015b60405180910390f35b34801561017357600080fd5b50306000908152600160205260409020545b60405190815260200161015e565b34801561019f57600080fd5b506101b36101ae366004611042565b61044b565b005b3480156101c157600080fd5b506101b36101d0366004611042565b610588565b3480156101e157600080fd5b506101856101f0366004611042565b6001600160a01b031660009081526001602052604090205490565b34801561021757600080fd5b5061022b6102263660046111ac565b610651565b60405160ff909116815260200161015e565b6101b361024b36600461105c565b6106fc565b34801561025c57600080fd5b506102676201000081565b60405163ffffffff909116815260200161015e565b34801561028857600080fd5b506101856107b2565b34801561029d57600080fd5b5061022b600781565b3480156102b257600080fd5b506102c66102c13660046111ac565b610865565b604051901515815260200161015e565b3480156102e257600080fd5b506101b36102f13660046111ac565b610881565b34801561030257600080fd5b5061030b610a61565b6040516001600160a01b03909116815260200161015e565b34801561032f57600080fd5b506101b361033e366004611119565b610a6b565b34801561034f57600080fd5b50610185600160fe1b81565b34801561036757600080fd5b50610185600160ff1b81565b34801561037f57600080fd5b5060005460ff1661022b565b34801561039757600080fd5b506102c66103a6366004611119565b610ac7565b3480156103b757600080fd5b506101b36103c63660046111ac565b610ae9565b3480156103d757600080fd5b506101856103e6366004611142565b610af3565b3480156103f757600080fd5b506102c66104063660046111ac565b610b1e565b60008061041783610651565b60ff1690508061042857600061043f565b600261043560018361145c565b61043f9190611388565b9392505050565b905090565b600054610100900460ff161580801561046b5750600054600160ff909116105b806104855750303b158015610485575060005460ff166001145b6104aa5760405162461bcd60e51b81526004016104a1906112ab565b60405180910390fd5b6000805460ff1916600117905580156104cd576000805461ff0019166101001790555b6001600160a01b03821661051a5760405162461bcd60e51b81526020600482015260146024820152731391950818dbdb9d1c9858dd081b9bdd081cd95d60621b60448201526064016104a1565b609880546001600160a01b0319166001600160a01b03841617905561053e33610b39565b8015610584576000805461ff0019169055604051600181527f7f26b83ff96e1f2b6a682f133852f6798a09c465da95921460cefb38474024989060200160405180910390a15b5050565b306001600160a01b037f00000000000000000000000000000000000000000000000000000000000000001614156105d15760405162461bcd60e51b81526004016104a190611213565b7f00000000000000000000000000000000000000000000000000000000000000006001600160a01b0316610603610bbf565b6001600160a01b0316146106295760405162461bcd60e51b81526004016104a19061125f565b61063281610bdb565b6040805160008082526020820190925261064e91839190610c04565b50565b609854604051634f558e7960e01b8152600481018390526000916001600160a01b031690634f558e799060240160206040518083038186803b15801561069657600080fd5b505afa1580156106aa573d6000803e3d6000fd5b505050506040513d601f19601f820116820180604052508101906106ce9190611174565b6106d95760006106f6565b6000828152609760205260409020546106f69060ff166001611320565b92915050565b306001600160a01b037f00000000000000000000000000000000000000000000000000000000000000001614156107455760405162461bcd60e51b81526004016104a190611213565b7f00000000000000000000000000000000000000000000000000000000000000006001600160a01b0316610777610bbf565b6001600160a01b03161461079d5760405162461bcd60e51b81526004016104a19061125f565b6107a682610bdb565b61058482826001610c04565b6000306001600160a01b037f000000000000000000000000000000000000000000000000000000000000000016146108525760405162461bcd60e51b815260206004820152603860248201527f555550535570677261646561626c653a206d757374206e6f742062652063616c60448201527f6c6564207468726f7567682064656c656761746563616c6c000000000000000060648201526084016104a1565b506000805160206114fb83398151915290565b306000908152600160205260408120546106f6905b8316831490565b61088d62010000610b1e565b6108a95760405162461bcd60e51b81526004016104a1906112f9565b609854604051634f558e7960e01b8152600481018390526001600160a01b0390911690634f558e799060240160206040518083038186803b1580156108ed57600080fd5b505afa158015610901573d6000803e3d6000fd5b505050506040513d601f19601f820116820180604052508101906109259190611174565b6109655760405162461bcd60e51b815260206004820152601160248201527013919508191bd95cdb89dd08195e1a5cdd607a1b60448201526064016104a1565b6109716001600761147f565b60008281526097602052604090205460ff9182169116106109ca5760405162461bcd60e51b81526020600482015260136024820152721d1a595c881b195d995b08195e18d959591959606a1b60448201526064016104a1565b60008181526097602052604081208054600192906109ec90849060ff16611320565b82546101009290920a60ff8181021990931691831602179091556098546000848152609760209081526040918290205491519190931681528493506001600160a01b03909116917f77d8e59089c5fd835694ef65e003ce08cb8945f97331b366d5c2b18c9e95af64910160405180910390a350565b6000610446610bbf565b610a78600160ff1b610b1e565b610a945760405162461bcd60e51b81526004016104a1906112f9565b6105848282610ac233610abc876001600160a01b031660009081526001602052604090205490565b86610af3565b610d83565b6001600160a01b03821660009081526001602052604081205461043f9061087a565b61064e3082610a6b565b6001600160a01b03929092166000908152600160205260409020546000198084188216189216171690565b60006106f63383610ac7565b6001600160a01b03163b151590565b600054610100900460ff1615808015610b595750600054600160ff909116105b80610b735750303b158015610b73575060005460ff166001145b610b8f5760405162461bcd60e51b81526004016104a1906112ab565b6000805460ff191660011790558015610bb2576000805461ff0019166101001790555b61053e8260001980610d83565b6000805160206114fb833981519152546001600160a01b031690565b610be8600160fe1b610b1e565b61064e5760405162461bcd60e51b81526004016104a1906112f9565b7f4910fdfa16fed3260ed0e7147f7cc6da11a60208b5b9406d12a635614ffd91435460ff1615610c3c57610c3783610ddf565b505050565b826001600160a01b03166352d1902d6040518163ffffffff1660e01b815260040160206040518083038186803b158015610c7557600080fd5b505afa925050508015610ca5575060408051601f3d908101601f19168201909252610ca291810190611194565b60015b610d085760405162461bcd60e51b815260206004820152602e60248201527f45524331393637557067726164653a206e657720696d706c656d656e7461746960448201526d6f6e206973206e6f74205555505360901b60648201526084016104a1565b6000805160206114fb8339815191528114610d775760405162461bcd60e51b815260206004820152602960248201527f45524331393637557067726164653a20756e737570706f727465642070726f786044820152681a58589b195555525160ba1b60648201526084016104a1565b50610c37838383610e7b565b6001600160a01b038316600081815260016020908152604091829020849055815185815290810184905233917f5a10526456f5116c0b7b80582c217d666243fd51b6a2d92c8011e601c2462e5f910160405180910390a3505050565b6001600160a01b0381163b610e4c5760405162461bcd60e51b815260206004820152602d60248201527f455243313936373a206e657720696d706c656d656e746174696f6e206973206e60448201526c1bdd08184818dbdb9d1c9858dd609a1b60648201526084016104a1565b6000805160206114fb83398151915280546001600160a01b0319166001600160a01b0392909216919091179055565b610e8483610ea6565b600082511180610e915750805b15610c3757610ea08383610ee6565b50505050565b610eaf81610ddf565b6040516001600160a01b038216907fbc7cd75a20ee27fd9adebab32041f755214dbc6bffa90cc0225b39da2e5c2d3b90600090a250565b606061043f838360405180606001604052806027815260200161151b602791396060600080856001600160a01b031685604051610f2391906111c4565b600060405180830381855af49150503d8060008114610f5e576040519150601f19603f3d011682016040523d82523d6000602084013e610f63565b606091505b5091509150610f7486838387610f7e565b9695505050505050565b60608315610fea578251610fe3576001600160a01b0385163b610fe35760405162461bcd60e51b815260206004820152601d60248201527f416464726573733a2063616c6c20746f206e6f6e2d636f6e747261637400000060448201526064016104a1565b5081610ff4565b610ff48383610ffc565b949350505050565b81511561100c5781518083602001fd5b8060405162461bcd60e51b81526004016104a191906111e0565b80356001600160a01b038116811461103d57600080fd5b919050565b600060208284031215611053578081fd5b61043f82611026565b6000806040838503121561106e578081fd5b61107783611026565b9150602083013567ffffffffffffffff80821115611093578283fd5b818501915085601f8301126110a6578283fd5b8135818111156110b8576110b86114e4565b604051601f8201601f19908116603f011681019083821181831017156110e0576110e06114e4565b816040528281528860208487010111156110f8578586fd5b82602086016020830137856020848301015280955050505050509250929050565b6000806040838503121561112b578182fd5b61113483611026565b946020939093013593505050565b600080600060608486031215611156578081fd5b61115f84611026565b95602085013595506040909401359392505050565b600060208284031215611185578081fd5b8151801515811461043f578182fd5b6000602082840312156111a5578081fd5b5051919050565b6000602082840312156111bd578081fd5b5035919050565b600082516111d68184602087016114a2565b9190910192915050565b60208152600082518060208401526111ff8160408501602087016114a2565b601f01601f19169190910160400192915050565b6020808252602c908201527f46756e6374696f6e206d7573742062652063616c6c6564207468726f7567682060408201526b19195b1959d85d1958d85b1b60a21b606082015260800190565b6020808252602c908201527f46756e6374696f6e206d7573742062652063616c6c6564207468726f7567682060408201526b6163746976652070726f787960a01b606082015260800190565b6020808252602e908201527f496e697469616c697a61626c653a20636f6e747261637420697320616c72656160408201526d191e481a5b9a5d1a585b1a5e995960921b606082015260800190565b6020808252600d908201526c1858d8d95cdcc819195b9a5959609a1b604082015260600190565b600060ff821660ff84168060ff0382111561133d5761133d6114ce565b019392505050565b600181815b80851115611380578161ffff04821115611366576113666114ce565b8085161561137357918102915b93841c939080029061134a565b509250929050565b600061043f60ff841661ffff84166000826113a5575060016106f6565b816113b2575060006106f6565b81600181146113c857600281146113d257611401565b60019150506106f6565b60ff8411156113e3576113e36114ce565b6001841b915061ffff8211156113fb576113fb6114ce565b506106f6565b5060208310610133831016604e8410600b8410161715611436575081810a61ffff811115611431576114316114ce565b6106f6565b6114408383611345565b8061ffff04821115611454576114546114ce565b029392505050565b600061ffff83811690831681811015611477576114776114ce565b039392505050565b600060ff821660ff841680821015611499576114996114ce565b90039392505050565b60005b838110156114bd5781810151838201526020016114a5565b83811115610ea05750506000910152565b634e487b7160e01b600052601160045260246000fd5b634e487b7160e01b600052604160045260246000fdfe360894a13ba1a3210667c828492db98dca3e2076cc3735a920a3ca505d382bbc416464726573733a206c6f772d6c6576656c2064656c65676174652063616c6c206661696c6564a26469706673582212205887c969bb6f1c09a926f2fdae071bab94633b9e98a76e010e91de1fe1ac2aa564736f6c63430008040033",
  "devdoc": {
    "author": "Basil Gorin",
    "events": {
      "TierIncreased(address,uint256,uint8)": {
        "details": "Fired in increaseTier",
        "params": {
          "nftContract": "address of the NFT contract",
          "tier": "new tier value set for the given NFT",
          "tokenId": "NFT ID"
        }
      }
    },
    "kind": "dev",
    "methods": {
      "defaultVotingPower(uint256)": {
        "params": {
          "tokenId": "NFT to calculate voting power for"
        },
        "returns": {
          "_0": "zero if NFT doesn't exist, its voting power otherwise"
        }
      },
      "evaluateBy(address,uint256,uint256)": {
        "details": "Calculated based on:      1) operator's own permission set read from userRoles[operator]      2) target permission set - what is already set on the target      3) desired permission set - what do we want set target toCorner cases:      1) Operator is super admin and its permission set is `FULL_PRIVILEGES_MASK`:        `desired` bitset is returned regardless of the `target` permission set value        (what operator sets is what they get)      2) Operator with no permissions (zero bitset):        `target` bitset is returned regardless of the `desired` value        (operator has no authority and cannot modify anything)Example:      Consider an operator with the permissions bitmask     00001111      is about to modify the target permission set          01010101      Operator wants to set that permission set to          00110011      Based on their role, an operator has the permissions      to update only lowest 4 bits on the target, meaning that      high 4 bits of the target set in this example is left      unchanged and low 4 bits get changed as desired:      01010011",
        "params": {
          "desired": "desired set of permissions operator would like to set",
          "operator": "address of the contract operator which is about to set the permissions",
          "target": "input set of permissions to operator is going to modify"
        },
        "returns": {
          "_0": "resulting set of permissions given operator will set"
        }
      },
      "features()": {
        "details": "Effectively reads userRoles role for the contract itself",
        "returns": {
          "_0": "256-bit bitmask of the features enabled"
        }
      },
      "getImplementation()": {
        "returns": {
          "_0": "the current implementation address"
        }
      },
      "getInitializedVersion()": {
        "details": "Highest version that has been initialized.      Non-zero value means contract was already initialized.see {Initializable}, {reinitializer}.",
        "returns": {
          "_0": "highest version that has been initialized"
        }
      },
      "getRole(address)": {
        "details": "Having a simple getter instead of making the mapping public      allows enforcing the encapsulation of the mapping and protects from      writing to it directly in the inheriting smart contracts",
        "params": {
          "operator": "address of a user to read permissions for,      or self address to read global features of the smart contract"
        }
      },
      "getTier(uint256)": {
        "params": {
          "tokenId": "NFT ID to query tier for"
        },
        "returns": {
          "_0": "zero if NFT doesn't exist, its tier otherwise"
        }
      },
      "increaseTier(uint256)": {
        "details": "Requires NFT with the given ID to exist",
        "params": {
          "tokenId": "NFT ID to increase tier for"
        }
      },
      "isFeatureEnabled(uint256)": {
        "params": {
          "required": "set of features to check against"
        },
        "returns": {
          "_0": "true if all the features requested are enabled, false otherwise"
        }
      },
      "isOperatorInRole(address,uint256)": {
        "params": {
          "operator": "address of the user to check role for",
          "required": "set of permissions (role) to check"
        },
        "returns": {
          "_0": "true if all the permissions requested are enabled, false otherwise"
        }
      },
      "isSenderInRole(uint256)": {
        "params": {
          "required": "set of permissions (role) to check against"
        },
        "returns": {
          "_0": "true if all the permissions requested are enabled, false otherwise"
        }
      },
      "postConstruct(address)": {
        "details": "\"Constructor replacement\" for upgradeable, must be executed immediately after deployment      see https://docs.openzeppelin.com/upgrades-plugins/1.x/writing-upgradeable#initializers"
      },
      "proxiableUUID()": {
        "details": "Implementation of the ERC1822 {proxiableUUID} function. This returns the storage slot used by the implementation. It is used to validate the implementation's compatibility when performing an upgrade. IMPORTANT: A proxy pointing at a proxiable contract should not be considered proxiable itself, because this risks bricking a proxy that upgrades to it, by delegating to itself until out of gas. Thus it is critical that this function revert if invoked through a proxy. This is guaranteed by the `notDelegated` modifier."
      },
      "updateFeatures(uint256)": {
        "details": "Requires transaction sender to have `ROLE_ACCESS_MANAGER` permissionFunction is left for backward compatibility with older versions",
        "params": {
          "_mask": "bitmask representing a set of features to enable/disable"
        }
      },
      "updateRole(address,uint256)": {
        "details": "Setting role to zero is equivalent to removing an all permissionsSetting role to `FULL_PRIVILEGES_MASK` is equivalent to      copying senders' permissions (role) to the userRequires transaction sender to have `ROLE_ACCESS_MANAGER` permission",
        "params": {
          "operator": "address of a user to alter permissions for,       or self address to alter global features of the smart contract",
          "role": "bitmask representing a set of permissions to      enable/disable for a user specified"
        }
      },
      "upgradeTo(address)": {
        "custom:oz-upgrades-unsafe-allow-reachable": "delegatecall",
        "details": "Upgrade the implementation of the proxy to `newImplementation`. Calls {_authorizeUpgrade}. Emits an {Upgraded} event."
      },
      "upgradeToAndCall(address,bytes)": {
        "custom:oz-upgrades-unsafe-allow-reachable": "delegatecall",
        "details": "Upgrade the implementation of the proxy to `newImplementation`, and subsequently execute the function call encoded in `data`. Calls {_authorizeUpgrade}. Emits an {Upgraded} event."
      }
    },
    "stateVariables": {
      "ROLE_TIER_MANAGER": {
        "details": "Role ROLE_TIER_MANAGER allows executing `increaseTier` function"
      },
      "nftContract": {
        "details": "ERC721 contract Tier DB is bound toThe tier of non-existing NFTs is zero"
      },
      "tiers": {
        "details": "maps token ID => tier level minus oneTier level is derived from the value stored here by increasing it by one,      so that all the existing tokens default tier is one, not zeroThere is no setter function to update the tier to any value,      it can only be increased by one (many times)"
      }
    },
    "title": "Tier DB",
    "version": 1
  },
  "userdoc": {
    "kind": "user",
    "methods": {
      "MAXIMUM_TIER()": {
        "notice": "Maximum possible tier for an NFT, defining eventually      maximum voting power of the NFT      For example: voting_power(7) = 2 ^ (7 - 1) = 64"
      },
      "ROLE_ACCESS_MANAGER()": {
        "notice": "Access manager is responsible for assigning the roles to users,      enabling/disabling global features of the smart contractAccess manager can add, remove and update user roles,      remove and update global features"
      },
      "ROLE_TIER_MANAGER()": {
        "notice": "Tier manager is responsible for increasing NFTs tier"
      },
      "ROLE_UPGRADE_MANAGER()": {
        "notice": "Upgrade manager is responsible for smart contract upgrades,      see https://docs.openzeppelin.com/contracts/4.x/api/proxy#UUPSUpgradeable      see https://docs.openzeppelin.com/contracts/4.x/upgradeable"
      },
      "defaultVotingPower(uint256)": {
        "notice": "Calculates the default voting power according to the default formula      voting_power(tier) = 2 ^ (tier - 1)      voting power is zero for non-existent tokens      voting power is in range [1, 64] for tokens in existenceClient applications are free to override this and use any formula"
      },
      "evaluateBy(address,uint256,uint256)": {
        "notice": "Determines the permission bitmask an operator can set on the      target permission setUsed to calculate the permission bitmask to be set when requested     in `updateRole` and `updateFeatures` functions"
      },
      "features()": {
        "notice": "Retrieves globally set of features enabled"
      },
      "getImplementation()": {
        "notice": "Returns an address of the implementation smart contract,      see ERC1967Upgrade._getImplementation()"
      },
      "getRole(address)": {
        "notice": "Reads the permissions (role) for a given user from the `userRoles` mapping"
      },
      "getTier(uint256)": {
        "notice": "Gets the tier level for an NFT with the given ID"
      },
      "increaseTier(uint256)": {
        "notice": "Restricted access function to increase tier of the NFT      defined by its ID"
      },
      "isFeatureEnabled(uint256)": {
        "notice": "Checks if requested set of features is enabled globally on the contract"
      },
      "isOperatorInRole(address,uint256)": {
        "notice": "Checks if operator has all the permissions (role) required"
      },
      "isSenderInRole(uint256)": {
        "notice": "Checks if transaction sender `msg.sender` has all the permissions required"
      },
      "updateFeatures(uint256)": {
        "notice": "Updates set of the globally enabled features (`features`),      taking into account sender's permissions"
      },
      "updateRole(address,uint256)": {
        "notice": "Updates set of permissions (role) for a given user,      taking into account sender's permissions."
      }
    },
    "notice": "Tier DB enriches ERC721 token with its tier information,      which is then used for voting with the ERC721 tokens:      voting_power = fn(tier)      For example: voting_power(tier) = 2 ^ (tier - 1)Version 1",
    "version": 1
  },
  "storageLayout": {
    "storage": [
      {
        "astId": 371,
        "contract": "contracts/protocol/TierDBv1.sol:TierDBv1",
        "label": "_initialized",
        "offset": 0,
        "slot": "0",
        "type": "t_uint8"
      },
      {
        "astId": 374,
        "contract": "contracts/protocol/TierDBv1.sol:TierDBv1",
        "label": "_initializing",
        "offset": 1,
        "slot": "0",
        "type": "t_bool"
      },
      {
        "astId": 1293,
        "contract": "contracts/protocol/TierDBv1.sol:TierDBv1",
        "label": "userRoles",
        "offset": 0,
        "slot": "1",
        "type": "t_mapping(t_address,t_uint256)"
      },
      {
        "astId": 1298,
        "contract": "contracts/protocol/TierDBv1.sol:TierDBv1",
        "label": "__gap",
        "offset": 0,
        "slot": "2",
        "type": "t_array(t_uint256)49_storage"
      },
      {
        "astId": 353,
        "contract": "contracts/protocol/TierDBv1.sol:TierDBv1",
        "label": "__gap",
        "offset": 0,
        "slot": "51",
        "type": "t_array(t_uint256)50_storage"
      },
      {
        "astId": 668,
        "contract": "contracts/protocol/TierDBv1.sol:TierDBv1",
        "label": "__gap",
        "offset": 0,
        "slot": "101",
        "type": "t_array(t_uint256)50_storage"
      },
      {
        "astId": 1130,
        "contract": "contracts/protocol/TierDBv1.sol:TierDBv1",
        "label": "tiers",
        "offset": 0,
        "slot": "151",
        "type": "t_mapping(t_uint256,t_uint8)"
      },
      {
        "astId": 1134,
        "contract": "contracts/protocol/TierDBv1.sol:TierDBv1",
        "label": "nftContract",
        "offset": 0,
        "slot": "152",
        "type": "t_contract(ERC721Existable)1122"
      }
    ],
    "types": {
      "t_address": {
        "encoding": "inplace",
        "label": "address",
        "numberOfBytes": "20"
      },
      "t_array(t_uint256)49_storage": {
        "base": "t_uint256",
        "encoding": "inplace",
        "label": "uint256[49]",
        "numberOfBytes": "1568"
      },
      "t_array(t_uint256)50_storage": {
        "base": "t_uint256",
        "encoding": "inplace",
        "label": "uint256[50]",
        "numberOfBytes": "1600"
      },
      "t_bool": {
        "encoding": "inplace",
        "label": "bool",
        "numberOfBytes": "1"
      },
      "t_contract(ERC721Existable)1122": {
        "encoding": "inplace",
        "label": "contract ERC721Existable",
        "numberOfBytes": "20"
      },
      "t_mapping(t_address,t_uint256)": {
        "encoding": "mapping",
        "key": "t_address",
        "label": "mapping(address => uint256)",
        "numberOfBytes": "32",
        "value": "t_uint256"
      },
      "t_mapping(t_uint256,t_uint8)": {
        "encoding": "mapping",
        "key": "t_uint256",
        "label": "mapping(uint256 => uint8)",
        "numberOfBytes": "32",
        "value": "t_uint8"
      },
      "t_uint256": {
        "encoding": "inplace",
        "label": "uint256",
        "numberOfBytes": "32"
      },
      "t_uint8": {
        "encoding": "inplace",
        "label": "uint8",
        "numberOfBytes": "1"
      }
    }
  }
}