{
  "address": "0x1AB8157E61a1BB75908b35D29a41871221F49082",
  "abi": [
    {
      "anonymous": false,
      "inputs": [
        {
          "indexed": false,
          "internalType": "address",
          "name": "previousAdmin",
          "type": "address"
        },
        {
          "indexed": false,
          "internalType": "address",
          "name": "newAdmin",
          "type": "address"
        }
      ],
      "name": "AdminChanged",
      "type": "event"
    },
    {
      "anonymous": false,
      "inputs": [
        {
          "indexed": true,
          "internalType": "address",
          "name": "beacon",
          "type": "address"
        }
      ],
      "name": "BeaconUpgraded",
      "type": "event"
    },
    {
      "anonymous": false,
      "inputs": [
        {
          "indexed": false,
          "internalType": "uint8",
          "name": "version",
          "type": "uint8"
        }
      ],
      "name": "Initialized",
      "type": "event"
    },
    {
      "anonymous": false,
      "inputs": [
        {
          "indexed": true,
          "internalType": "address",
          "name": "_by",
          "type": "address"
        },
        {
          "indexed": true,
          "internalType": "address",
          "name": "_to",
          "type": "address"
        },
        {
          "indexed": false,
          "internalType": "uint256",
          "name": "_requested",
          "type": "uint256"
        },
        {
          "indexed": false,
          "internalType": "uint256",
          "name": "_assigned",
          "type": "uint256"
        }
      ],
      "name": "RoleUpdated",
      "type": "event"
    },
    {
      "anonymous": false,
      "inputs": [
        {
          "indexed": true,
          "internalType": "address",
          "name": "implementation",
          "type": "address"
        }
      ],
      "name": "Upgraded",
      "type": "event"
    },
    {
      "inputs": [],
      "name": "ROLE_ACCESS_MANAGER",
      "outputs": [
        {
          "internalType": "uint256",
          "name": "",
          "type": "uint256"
        }
      ],
      "stateMutability": "view",
      "type": "function"
    },
    {
      "inputs": [],
      "name": "ROLE_UPGRADE_MANAGER",
      "outputs": [
        {
          "internalType": "uint256",
          "name": "",
          "type": "uint256"
        }
      ],
      "stateMutability": "view",
      "type": "function"
    },
    {
      "inputs": [
        {
          "internalType": "address",
          "name": "operator",
          "type": "address"
        },
        {
          "internalType": "uint256",
          "name": "target",
          "type": "uint256"
        },
        {
          "internalType": "uint256",
          "name": "desired",
          "type": "uint256"
        }
      ],
      "name": "evaluateBy",
      "outputs": [
        {
          "internalType": "uint256",
          "name": "",
          "type": "uint256"
        }
      ],
      "stateMutability": "view",
      "type": "function"
    },
    {
      "inputs": [],
      "name": "features",
      "outputs": [
        {
          "internalType": "uint256",
          "name": "",
          "type": "uint256"
        }
      ],
      "stateMutability": "view",
      "type": "function"
    },
    {
      "inputs": [],
      "name": "getImplementation",
      "outputs": [
        {
          "internalType": "address",
          "name": "",
          "type": "address"
        }
      ],
      "stateMutability": "view",
      "type": "function"
    },
    {
      "inputs": [],
      "name": "getInitializedVersion",
      "outputs": [
        {
          "internalType": "uint8",
          "name": "",
          "type": "uint8"
        }
      ],
      "stateMutability": "view",
      "type": "function"
    },
    {
      "inputs": [
        {
          "internalType": "address",
          "name": "operator",
          "type": "address"
        }
      ],
      "name": "getRole",
      "outputs": [
        {
          "internalType": "uint256",
          "name": "",
          "type": "uint256"
        }
      ],
      "stateMutability": "view",
      "type": "function"
    },
    {
      "inputs": [
        {
          "internalType": "uint256",
          "name": "required",
          "type": "uint256"
        }
      ],
      "name": "isFeatureEnabled",
      "outputs": [
        {
          "internalType": "bool",
          "name": "",
          "type": "bool"
        }
      ],
      "stateMutability": "view",
      "type": "function"
    },
    {
      "inputs": [
        {
          "internalType": "address",
          "name": "operator",
          "type": "address"
        },
        {
          "internalType": "uint256",
          "name": "required",
          "type": "uint256"
        }
      ],
      "name": "isOperatorInRole",
      "outputs": [
        {
          "internalType": "bool",
          "name": "",
          "type": "bool"
        }
      ],
      "stateMutability": "view",
      "type": "function"
    },
    {
      "inputs": [
        {
          "internalType": "uint256",
          "name": "required",
          "type": "uint256"
        }
      ],
      "name": "isSenderInRole",
      "outputs": [
        {
          "internalType": "bool",
          "name": "",
          "type": "bool"
        }
      ],
      "stateMutability": "view",
      "type": "function"
    },
    {
      "inputs": [
        {
          "internalType": "address",
          "name": "_nftContract",
          "type": "address"
        },
        {
          "internalType": "address",
          "name": "_tierDB",
          "type": "address"
        }
      ],
      "name": "postConstruct",
      "outputs": [],
      "stateMutability": "nonpayable",
      "type": "function"
    },
    {
      "inputs": [],
      "name": "proxiableUUID",
      "outputs": [
        {
          "internalType": "bytes32",
          "name": "",
          "type": "bytes32"
        }
      ],
      "stateMutability": "view",
      "type": "function"
    },
    {
      "inputs": [
        {
          "internalType": "uint256",
          "name": "_mask",
          "type": "uint256"
        }
      ],
      "name": "updateFeatures",
      "outputs": [],
      "stateMutability": "nonpayable",
      "type": "function"
    },
    {
      "inputs": [
        {
          "internalType": "address",
          "name": "operator",
          "type": "address"
        },
        {
          "internalType": "uint256",
          "name": "role",
          "type": "uint256"
        }
      ],
      "name": "updateRole",
      "outputs": [],
      "stateMutability": "nonpayable",
      "type": "function"
    },
    {
      "inputs": [
        {
          "internalType": "address",
          "name": "newImplementation",
          "type": "address"
        }
      ],
      "name": "upgradeTo",
      "outputs": [],
      "stateMutability": "nonpayable",
      "type": "function"
    },
    {
      "inputs": [
        {
          "internalType": "address",
          "name": "newImplementation",
          "type": "address"
        },
        {
          "internalType": "bytes",
          "name": "data",
          "type": "bytes"
        }
      ],
      "name": "upgradeToAndCall",
      "outputs": [],
      "stateMutability": "payable",
      "type": "function"
    },
    {
      "inputs": [
        {
          "internalType": "uint8",
          "name": "tier",
          "type": "uint8"
        }
      ],
      "name": "votingPowerFunction",
      "outputs": [
        {
          "internalType": "uint16",
          "name": "",
          "type": "uint16"
        }
      ],
      "stateMutability": "pure",
      "type": "function"
    },
    {
      "inputs": [
        {
          "internalType": "address",
          "name": "owner",
          "type": "address"
        }
      ],
      "name": "votingPowerOf",
      "outputs": [
        {
          "internalType": "uint256",
          "name": "",
          "type": "uint256"
        }
      ],
      "stateMutability": "view",
      "type": "function"
    }
  ],
  "transactionHash": "0xd8fbf9d698b067ea3f5ccffba100f115b5944622f3220f0e74da3e363899254d",
  "args": [],
  "numDeployments": 1,
  "solcInputHash": "8dfdf232903e8dfe84d545886a65fb91",
  "bytecode": "0x60a06040523060601b60805234801561001757600080fd5b50600054610100900460ff16158080156100385750600054600160ff909116105b8061006357506100513061013960201b610a6b1760201c565b158015610063575060005460ff166001145b6100ca5760405162461bcd60e51b815260206004820152602e60248201527f496e697469616c697a61626c653a20636f6e747261637420697320616c72656160448201526d191e481a5b9a5d1a585b1a5e995960921b606482015260840160405180910390fd5b6000805460ff1916600117905580156100ed576000805461ff0019166101001790555b8015610133576000805461ff0019169055604051600181527f7f26b83ff96e1f2b6a682f133852f6798a09c465da95921460cefb38474024989060200160405180910390a15b50610148565b6001600160a01b03163b151590565b60805160601c6115396200018360003960008181610391015281816103da01528181610463015281816104a3015261051f01526115396000f3fe6080604052600436106101095760003560e01c8063ae5b102e11610095578063bcc3f3bd11610064578063bcc3f3bd146102e1578063c688d69314610301578063d5bb7f6714610321578063f822d5aa14610341578063fcc2c0781461036157600080fd5b8063ae5b102e1461026f578063ae60bda41461028f578063ae682e2e146102a7578063b3c65015146102bf57600080fd5b806352d1902d116100dc57806352d1902d146101aa57806363bada4f146101bf578063725f3626146101df57806373ee26181461020f578063aaf10f421461024257600080fd5b80632b5214161461010e5780633659cfe61461013f57806344276733146101615780634f1ef28614610197575b600080fd5b34801561011a57600080fd5b50306000908152600160205260409020545b6040519081526020015b60405180910390f35b34801561014b57600080fd5b5061015f61015a366004610fe7565b610386565b005b34801561016d57600080fd5b5061012c61017c366004610fe7565b6001600160a01b031660009081526001602052604090205490565b61015f6101a5366004611033565b610458565b3480156101b657600080fd5b5061012c610512565b3480156101cb57600080fd5b5061015f6101da366004611001565b6105c5565b3480156101eb57600080fd5b506101ff6101fa366004611163565b61075e565b6040519015158152602001610136565b34801561021b57600080fd5b5061022f61022a36600461117b565b610780565b60405161ffff9091168152602001610136565b34801561024e57600080fd5b506102576107a9565b6040516001600160a01b039091168152602001610136565b34801561027b57600080fd5b5061015f61028a3660046110f0565b6107b3565b34801561029b57600080fd5b5061012c600160fe1b81565b3480156102b357600080fd5b5061012c600160ff1b81565b3480156102cb57600080fd5b5060005460405160ff9091168152602001610136565b3480156102ed57600080fd5b5061012c6102fc366004610fe7565b61082f565b34801561030d57600080fd5b506101ff61031c3660046110f0565b610a01565b34801561032d57600080fd5b5061015f61033c366004611163565b610a2a565b34801561034d57600080fd5b5061012c61035c366004611119565b610a34565b34801561036d57600080fd5b506101ff61037c366004611163565b610a5f565b905090565b306001600160a01b037f00000000000000000000000000000000000000000000000000000000000000001614156103d85760405162461bcd60e51b81526004016103cf90611202565b60405180910390fd5b7f00000000000000000000000000000000000000000000000000000000000000006001600160a01b031661040a610a7a565b6001600160a01b0316146104305760405162461bcd60e51b81526004016103cf9061124e565b61043981610a96565b6040805160008082526020820190925261045591839190610adf565b50565b306001600160a01b037f00000000000000000000000000000000000000000000000000000000000000001614156104a15760405162461bcd60e51b81526004016103cf90611202565b7f00000000000000000000000000000000000000000000000000000000000000006001600160a01b03166104d3610a7a565b6001600160a01b0316146104f95760405162461bcd60e51b81526004016103cf9061124e565b61050282610a96565b61050e82826001610adf565b5050565b6000306001600160a01b037f000000000000000000000000000000000000000000000000000000000000000016146105b25760405162461bcd60e51b815260206004820152603860248201527f555550535570677261646561626c653a206d757374206e6f742062652063616c60448201527f6c6564207468726f7567682064656c656761746563616c6c000000000000000060648201526084016103cf565b506000805160206114bd83398151915290565b600054610100900460ff16158080156105e55750600054600160ff909116105b806105ff5750303b1580156105ff575060005460ff166001145b61061b5760405162461bcd60e51b81526004016103cf9061129a565b6000805460ff19166001179055801561063e576000805461ff0019166101001790555b6001600160a01b03831661068b5760405162461bcd60e51b81526020600482015260146024820152731391950818dbdb9d1c9858dd081b9bdd081cd95d60621b60448201526064016103cf565b6001600160a01b0382166106da5760405162461bcd60e51b8152602060048201526016602482015275151a595c9110881859191c995cdcc81b9bdd081cd95d60521b60448201526064016103cf565b609780546001600160a01b038086166001600160a01b031992831617909255609880549285169290911691909117905561071333610c59565b8015610759576000805461ff0019169055604051600181527f7f26b83ff96e1f2b6a682f133852f6798a09c465da95921460cefb38474024989060200160405180910390a15b505050565b3060009081526001602052604081205461077a905b8316831490565b92915050565b6000808260ff161161079357600061077a565b61079e600183611417565b61077a906002611343565b6000610381610a7a565b6107c0600160ff1b610a5f565b6107fc5760405162461bcd60e51b815260206004820152600d60248201526c1858d8d95cdcc819195b9a5959609a1b60448201526064016103cf565b61050e828261082a33610824876001600160a01b031660009081526001602052604090205490565b86610a34565b610d28565b60008060005b6097546040516370a0823160e01b81526001600160a01b038681166004830152909116906370a082319060240160206040518083038186803b15801561087a57600080fd5b505afa15801561088e573d6000803e3d6000fd5b505050506040513d601f19601f820116820180604052508101906108b2919061114b565b8110156109fa57609754604051632f745c5960e01b81526001600160a01b038681166004830152602482018490526000921690632f745c599060440160206040518083038186803b15801561090657600080fd5b505afa15801561091a573d6000803e3d6000fd5b505050506040513d601f19601f8201168201806040525081019061093e919061114b565b6098546097546040516315c6998160e01b81526001600160a01b039182166004820152602481018490529293506000929116906315c699819060440160206040518083038186803b15801561099257600080fd5b505afa1580156109a6573d6000803e3d6000fd5b505050506040513d601f19601f820116820180604052508101906109ca9190611197565b90506109d581610780565b6109e39061ffff16856112e8565b9350505080806109f290611466565b915050610835565b5092915050565b6001600160a01b038216600090815260016020526040812054610a2390610773565b9392505050565b61045530826107b3565b6001600160a01b03929092166000908152600160205260409020546000198084188216189216171690565b600061077a3383610a01565b6001600160a01b03163b151590565b6000805160206114bd833981519152546001600160a01b031690565b610aa3600160fe1b610a5f565b6104555760405162461bcd60e51b815260206004820152600d60248201526c1858d8d95cdcc819195b9a5959609a1b60448201526064016103cf565b7f4910fdfa16fed3260ed0e7147f7cc6da11a60208b5b9406d12a635614ffd91435460ff1615610b125761075983610d84565b826001600160a01b03166352d1902d6040518163ffffffff1660e01b815260040160206040518083038186803b158015610b4b57600080fd5b505afa925050508015610b7b575060408051601f3d908101601f19168201909252610b789181019061114b565b60015b610bde5760405162461bcd60e51b815260206004820152602e60248201527f45524331393637557067726164653a206e657720696d706c656d656e7461746960448201526d6f6e206973206e6f74205555505360901b60648201526084016103cf565b6000805160206114bd8339815191528114610c4d5760405162461bcd60e51b815260206004820152602960248201527f45524331393637557067726164653a20756e737570706f727465642070726f786044820152681a58589b195555525160ba1b60648201526084016103cf565b50610759838383610e20565b600054610100900460ff1615808015610c795750600054600160ff909116105b80610c935750303b158015610c93575060005460ff166001145b610caf5760405162461bcd60e51b81526004016103cf9061129a565b6000805460ff191660011790558015610cd2576000805461ff0019166101001790555b610cdf8260001980610d28565b801561050e576000805461ff0019169055604051600181527f7f26b83ff96e1f2b6a682f133852f6798a09c465da95921460cefb38474024989060200160405180910390a15050565b6001600160a01b038316600081815260016020908152604091829020849055815185815290810184905233917f5a10526456f5116c0b7b80582c217d666243fd51b6a2d92c8011e601c2462e5f910160405180910390a3505050565b6001600160a01b0381163b610df15760405162461bcd60e51b815260206004820152602d60248201527f455243313936373a206e657720696d706c656d656e746174696f6e206973206e60448201526c1bdd08184818dbdb9d1c9858dd609a1b60648201526084016103cf565b6000805160206114bd83398151915280546001600160a01b0319166001600160a01b0392909216919091179055565b610e2983610e4b565b600082511180610e365750805b1561075957610e458383610e8b565b50505050565b610e5481610d84565b6040516001600160a01b038216907fbc7cd75a20ee27fd9adebab32041f755214dbc6bffa90cc0225b39da2e5c2d3b90600090a250565b6060610a2383836040518060600160405280602781526020016114dd602791396060600080856001600160a01b031685604051610ec891906111b3565b600060405180830381855af49150503d8060008114610f03576040519150601f19603f3d011682016040523d82523d6000602084013e610f08565b606091505b5091509150610f1986838387610f23565b9695505050505050565b60608315610f8f578251610f88576001600160a01b0385163b610f885760405162461bcd60e51b815260206004820152601d60248201527f416464726573733a2063616c6c20746f206e6f6e2d636f6e747261637400000060448201526064016103cf565b5081610f99565b610f998383610fa1565b949350505050565b815115610fb15781518083602001fd5b8060405162461bcd60e51b81526004016103cf91906111cf565b80356001600160a01b0381168114610fe257600080fd5b919050565b600060208284031215610ff8578081fd5b610a2382610fcb565b60008060408385031215611013578081fd5b61101c83610fcb565b915061102a60208401610fcb565b90509250929050565b60008060408385031215611045578182fd5b61104e83610fcb565b9150602083013567ffffffffffffffff8082111561106a578283fd5b818501915085601f83011261107d578283fd5b81358181111561108f5761108f611497565b604051601f8201601f19908116603f011681019083821181831017156110b7576110b7611497565b816040528281528860208487010111156110cf578586fd5b82602086016020830137856020848301015280955050505050509250929050565b60008060408385031215611102578182fd5b61110b83610fcb565b946020939093013593505050565b60008060006060848603121561112d578081fd5b61113684610fcb565b95602085013595506040909401359392505050565b60006020828403121561115c578081fd5b5051919050565b600060208284031215611174578081fd5b5035919050565b60006020828403121561118c578081fd5b8135610a23816114ad565b6000602082840312156111a8578081fd5b8151610a23816114ad565b600082516111c581846020870161143a565b9190910192915050565b60208152600082518060208401526111ee81604085016020870161143a565b601f01601f19169190910160400192915050565b6020808252602c908201527f46756e6374696f6e206d7573742062652063616c6c6564207468726f7567682060408201526b19195b1959d85d1958d85b1b60a21b606082015260800190565b6020808252602c908201527f46756e6374696f6e206d7573742062652063616c6c6564207468726f7567682060408201526b6163746976652070726f787960a01b606082015260800190565b6020808252602e908201527f496e697469616c697a61626c653a20636f6e747261637420697320616c72656160408201526d191e481a5b9a5d1a585b1a5e995960921b606082015260800190565b600082198211156112fb576112fb611481565b500190565b600181815b8085111561133b578161ffff0482111561132157611321611481565b8085161561132e57918102915b93841c9390800290611305565b509250929050565b6000610a2360ff841661ffff84166000826113605750600161077a565b8161136d5750600061077a565b8160018114611383576002811461138d576113bc565b600191505061077a565b60ff84111561139e5761139e611481565b6001841b915061ffff8211156113b6576113b6611481565b5061077a565b5060208310610133831016604e8410600b84101617156113f1575081810a61ffff8111156113ec576113ec611481565b61077a565b6113fb8383611300565b8061ffff0482111561140f5761140f611481565b029392505050565b600060ff821660ff84168082101561143157611431611481565b90039392505050565b60005b8381101561145557818101518382015260200161143d565b83811115610e455750506000910152565b600060001982141561147a5761147a611481565b5060010190565b634e487b7160e01b600052601160045260246000fd5b634e487b7160e01b600052604160045260246000fd5b60ff8116811461045557600080fdfe360894a13ba1a3210667c828492db98dca3e2076cc3735a920a3ca505d382bbc416464726573733a206c6f772d6c6576656c2064656c65676174652063616c6c206661696c6564a2646970667358221220e84d04cf2e761a0ef986555b99161862c725bb630328061727af62cdd3d9a0b664736f6c63430008040033",
  "devdoc": {
    "author": "Basil Gorin",
    "details": "Version 1",
    "kind": "dev",
    "methods": {
      "evaluateBy(address,uint256,uint256)": {
        "details": "Calculated based on:      1) operator's own permission set read from userRoles[operator]      2) target permission set - what is already set on the target      3) desired permission set - what do we want set target toCorner cases:      1) Operator is super admin and its permission set is `FULL_PRIVILEGES_MASK`:        `desired` bitset is returned regardless of the `target` permission set value        (what operator sets is what they get)      2) Operator with no permissions (zero bitset):        `target` bitset is returned regardless of the `desired` value        (operator has no authority and cannot modify anything)Example:      Consider an operator with the permissions bitmask     00001111      is about to modify the target permission set          01010101      Operator wants to set that permission set to          00110011      Based on their role, an operator has the permissions      to update only lowest 4 bits on the target, meaning that      high 4 bits of the target set in this example is left      unchanged and low 4 bits get changed as desired:      01010011",
        "params": {
          "desired": "desired set of permissions operator would like to set",
          "operator": "address of the contract operator which is about to set the permissions",
          "target": "input set of permissions to operator is going to modify"
        },
        "returns": {
          "_0": "resulting set of permissions given operator will set"
        }
      },
      "features()": {
        "details": "Effectively reads userRoles role for the contract itself",
        "returns": {
          "_0": "256-bit bitmask of the features enabled"
        }
      },
      "getImplementation()": {
        "returns": {
          "_0": "the current implementation address"
        }
      },
      "getInitializedVersion()": {
        "details": "Highest version that has been initialized.      Non-zero value means contract was already initialized.see {Initializable}, {reinitializer}.",
        "returns": {
          "_0": "highest version that has been initialized"
        }
      },
      "getRole(address)": {
        "details": "Having a simple getter instead of making the mapping public      allows enforcing the encapsulation of the mapping and protects from      writing to it directly in the inheriting smart contracts",
        "params": {
          "operator": "address of a user to read permissions for,      or self address to read global features of the smart contract"
        }
      },
      "isFeatureEnabled(uint256)": {
        "params": {
          "required": "set of features to check against"
        },
        "returns": {
          "_0": "true if all the features requested are enabled, false otherwise"
        }
      },
      "isOperatorInRole(address,uint256)": {
        "params": {
          "operator": "address of the user to check role for",
          "required": "set of permissions (role) to check"
        },
        "returns": {
          "_0": "true if all the permissions requested are enabled, false otherwise"
        }
      },
      "isSenderInRole(uint256)": {
        "params": {
          "required": "set of permissions (role) to check against"
        },
        "returns": {
          "_0": "true if all the permissions requested are enabled, false otherwise"
        }
      },
      "postConstruct(address,address)": {
        "details": "\"Constructor replacement\" for upgradeable, must be executed immediately after deployment      see https://docs.openzeppelin.com/upgrades-plugins/1.x/writing-upgradeable#initializers",
        "params": {
          "_nftContract": "ERC721 contract Voting Logic is bound to",
          "_tierDB": "TierDB contract Voting Logic is bound to"
        }
      },
      "proxiableUUID()": {
        "details": "Implementation of the ERC1822 {proxiableUUID} function. This returns the storage slot used by the implementation. It is used to validate the implementation's compatibility when performing an upgrade. IMPORTANT: A proxy pointing at a proxiable contract should not be considered proxiable itself, because this risks bricking a proxy that upgrades to it, by delegating to itself until out of gas. Thus it is critical that this function revert if invoked through a proxy. This is guaranteed by the `notDelegated` modifier."
      },
      "updateFeatures(uint256)": {
        "details": "Requires transaction sender to have `ROLE_ACCESS_MANAGER` permissionFunction is left for backward compatibility with older versions",
        "params": {
          "_mask": "bitmask representing a set of features to enable/disable"
        }
      },
      "updateRole(address,uint256)": {
        "details": "Setting role to zero is equivalent to removing an all permissionsSetting role to `FULL_PRIVILEGES_MASK` is equivalent to      copying senders' permissions (role) to the userRequires transaction sender to have `ROLE_ACCESS_MANAGER` permission",
        "params": {
          "operator": "address of a user to alter permissions for,       or self address to alter global features of the smart contract",
          "role": "bitmask representing a set of permissions to      enable/disable for a user specified"
        }
      },
      "upgradeTo(address)": {
        "custom:oz-upgrades-unsafe-allow-reachable": "delegatecall",
        "details": "Upgrade the implementation of the proxy to `newImplementation`. Calls {_authorizeUpgrade}. Emits an {Upgraded} event."
      },
      "upgradeToAndCall(address,bytes)": {
        "custom:oz-upgrades-unsafe-allow-reachable": "delegatecall",
        "details": "Upgrade the implementation of the proxy to `newImplementation`, and subsequently execute the function call encoded in `data`. Calls {_authorizeUpgrade}. Emits an {Upgraded} event."
      },
      "votingPowerFunction(uint8)": {
        "params": {
          "tier": "tier of the NFT"
        },
        "returns": {
          "_0": "zero if NFT doesn't exist, its voting power otherwise"
        }
      },
      "votingPowerOf(address)": {
        "params": {
          "owner": "address to calculate voting power for"
        },
        "returns": {
          "_0": "cumulative voting power of the address; zero if address doesn't own any NFTs"
        }
      }
    },
    "stateVariables": {
      "nftContract": {
        "details": "ERC721 contract Voting Logic is bound to"
      },
      "tierDB": {
        "details": "Read-only link to the TierDB contract, used to fetch      tier level for the NFTs when calculating voting power"
      }
    },
    "title": "Default Voting Power Logic",
    "version": 1
  },
  "userdoc": {
    "kind": "user",
    "methods": {
      "ROLE_ACCESS_MANAGER()": {
        "notice": "Access manager is responsible for assigning the roles to users,      enabling/disabling global features of the smart contractAccess manager can add, remove and update user roles,      remove and update global features"
      },
      "ROLE_UPGRADE_MANAGER()": {
        "notice": "Upgrade manager is responsible for smart contract upgrades,      see https://docs.openzeppelin.com/contracts/4.x/api/proxy#UUPSUpgradeable      see https://docs.openzeppelin.com/contracts/4.x/upgradeable"
      },
      "evaluateBy(address,uint256,uint256)": {
        "notice": "Determines the permission bitmask an operator can set on the      target permission setUsed to calculate the permission bitmask to be set when requested     in `updateRole` and `updateFeatures` functions"
      },
      "features()": {
        "notice": "Retrieves globally set of features enabled"
      },
      "getImplementation()": {
        "notice": "Returns an address of the implementation smart contract,      see ERC1967Upgrade._getImplementation()"
      },
      "getRole(address)": {
        "notice": "Reads the permissions (role) for a given user from the `userRoles` mapping"
      },
      "isFeatureEnabled(uint256)": {
        "notice": "Checks if requested set of features is enabled globally on the contract"
      },
      "isOperatorInRole(address,uint256)": {
        "notice": "Checks if operator has all the permissions (role) required"
      },
      "isSenderInRole(uint256)": {
        "notice": "Checks if transaction sender `msg.sender` has all the permissions required"
      },
      "updateFeatures(uint256)": {
        "notice": "Updates set of the globally enabled features (`features`),      taking into account sender's permissions"
      },
      "updateRole(address,uint256)": {
        "notice": "Updates set of permissions (role) for a given user,      taking into account sender's permissions."
      },
      "votingPowerFunction(uint8)": {
        "notice": "Translates the tier to the voting power according to the formula      voting_power(tier) = 2 ^ (tier - 1)      voting power is zero for tier 0 tokens (non-existent tokens)"
      },
      "votingPowerOf(address)": {
        "notice": "Sums up the default voting power of the NFT owner according to the default formula      voting_power(tier) = 2 ^ (tier - 1)Client applications are free to override this and use any formula"
      }
    },
    "notice": "Default voting logic applies to the the owners of NFTs having a tierThe NFT with the tier level `tier` has the voting power      voting_power(tier) = 2 ^ (tier - 1)Voting power of the NFT owner is a sum of voting powers of all the      NFTs owned by the address",
    "version": 1
  },
  "storageLayout": {
    "storage": [
      {
        "astId": 371,
        "contract": "contracts/protocol/VotingPowerV1.sol:VotingPowerV1",
        "label": "_initialized",
        "offset": 0,
        "slot": "0",
        "type": "t_uint8"
      },
      {
        "astId": 374,
        "contract": "contracts/protocol/VotingPowerV1.sol:VotingPowerV1",
        "label": "_initializing",
        "offset": 1,
        "slot": "0",
        "type": "t_bool"
      },
      {
        "astId": 1653,
        "contract": "contracts/protocol/VotingPowerV1.sol:VotingPowerV1",
        "label": "userRoles",
        "offset": 0,
        "slot": "1",
        "type": "t_mapping(t_address,t_uint256)"
      },
      {
        "astId": 1658,
        "contract": "contracts/protocol/VotingPowerV1.sol:VotingPowerV1",
        "label": "__gap",
        "offset": 0,
        "slot": "2",
        "type": "t_array(t_uint256)49_storage"
      },
      {
        "astId": 353,
        "contract": "contracts/protocol/VotingPowerV1.sol:VotingPowerV1",
        "label": "__gap",
        "offset": 0,
        "slot": "51",
        "type": "t_array(t_uint256)50_storage"
      },
      {
        "astId": 668,
        "contract": "contracts/protocol/VotingPowerV1.sol:VotingPowerV1",
        "label": "__gap",
        "offset": 0,
        "slot": "101",
        "type": "t_array(t_uint256)50_storage"
      },
      {
        "astId": 1508,
        "contract": "contracts/protocol/VotingPowerV1.sol:VotingPowerV1",
        "label": "nftContract",
        "offset": 0,
        "slot": "151",
        "type": "t_contract(ERC721Enumerable)1305"
      },
      {
        "astId": 1512,
        "contract": "contracts/protocol/VotingPowerV1.sol:VotingPowerV1",
        "label": "tierDB",
        "offset": 0,
        "slot": "152",
        "type": "t_contract(TierAware)1319"
      }
    ],
    "types": {
      "t_address": {
        "encoding": "inplace",
        "label": "address",
        "numberOfBytes": "20"
      },
      "t_array(t_uint256)49_storage": {
        "base": "t_uint256",
        "encoding": "inplace",
        "label": "uint256[49]",
        "numberOfBytes": "1568"
      },
      "t_array(t_uint256)50_storage": {
        "base": "t_uint256",
        "encoding": "inplace",
        "label": "uint256[50]",
        "numberOfBytes": "1600"
      },
      "t_bool": {
        "encoding": "inplace",
        "label": "bool",
        "numberOfBytes": "1"
      },
      "t_contract(ERC721Enumerable)1305": {
        "encoding": "inplace",
        "label": "contract ERC721Enumerable",
        "numberOfBytes": "20"
      },
      "t_contract(TierAware)1319": {
        "encoding": "inplace",
        "label": "contract TierAware",
        "numberOfBytes": "20"
      },
      "t_mapping(t_address,t_uint256)": {
        "encoding": "mapping",
        "key": "t_address",
        "label": "mapping(address => uint256)",
        "numberOfBytes": "32",
        "value": "t_uint256"
      },
      "t_uint256": {
        "encoding": "inplace",
        "label": "uint256",
        "numberOfBytes": "32"
      },
      "t_uint8": {
        "encoding": "inplace",
        "label": "uint8",
        "numberOfBytes": "1"
      }
    }
  }
}